S01C00006669726D776172652D61766E65742D726173796E2E7372656306
S31500000000E8D10120118701003D8501000D8701001F
S315000000100D8701000D8701000D8701000D87010086
S3150000002000000000000000000000000011F80000C1
S315000000300D8701000000000029F8000091F800007B
S31500000040416C0100B16B0100D16C0100196D01001A
S3150000005029640100B9640100DD640100C165010085
S315000000609D7A0100416C0100B16B0100D16C010069
S31500000070196D010095750100D5760100C97701005B
S31500000080917801009D7A0100DD260100112701000B
S315000000904527010069270100E5820100E58201008C
S315000000A0000000000000000000000000000000004A
S315000000B0000000000000000000000000000000003A
S315000000C0000000000000000000000000000000002A
S315000000D0000000000000000000000000000000001A
S315000000E0000000000000000000000000000000000A
S315000000F000000000000000000000000000000000FA
S3150000010000000000000000000000000000000000E9
S3150000011000000000000000000000000000000000D9
S3150000012000000000000000000000000000000000C9
S3150000013000000000000000000000000000000000B9
S3150000014000000000000000000000000000000000A9
S315000001500000000000000000000000000000000099
S315000001600000000000000000000000000000000089
S315000001700000000000000000000000000000000079
S315000001800000000000000000000000000000000069
S315000001900000000000000000000000000000000059
S315000001A00000000000000000000000000000000049
S315000001B00000000000000000000000000000000039
S315000001C0FFFFFFFFFFFFFFFFFFFFFFFFFFFFFFFF39
S315000001D0FFFFFFFFFFFFFFFFFFFFFFFFFFFFFFFF29
S315000001E0FFFFFFFFFFFFFFFFFFFFFFFFFFFFFFFF19
S315000001F0FFFFFFFFFFFFFFFFFFFFFFFFFFFFFFFF09
S3150000020010B5054C237833B9044B13B1044800E00C
S3150000021000BF0123237010BD38120020000000002B
S31500000220284A030008B5034B1BB10349034800E005
S3150000023000BF08BD000000003C120020284A030051
S315000002402DE9F04782B00A9E06B3804689461546D8
S315000002501F4601E0361B19D005F01F04C4F1200427
S31500000260B44228BF3446D8F800C02A46DCF800005D
S315000002700097019400234946DCF804A0D0472744A0
S3150000028025440028E6D002B0BDE8F087002002B081
S31500000290BDE8F0872DE9F0434FF0010885B0CDF8B1
S315000002A000800F460322002103AB064690F8BB50A0
S315000002B0FFF7C6FF044620BB039B13B306EB850579
S315000002C0D5F8A890D5F898304B4517D05823414615
S315000002D0009330463B46134AFFF7B2FF00BBC145C9
S315000002E009EB080308BF00233A6822F00302C6F8A8
S315000002F08420BA68C6F8C820C5F8A830BB79072B91
S3150000030003D0204605B0BDE8F083142401210094F3
S315000003103046054A06F1CC03FFF792FF0446F0E7A4
S315000003200446EEE7C07B0020007500202DE9F04F63
S3150000033083B00C9E1EB380468A4615461F464FF074
S31500000340000905F01F04C4F12004B44228BF344656
S31500000350D8F800C03B46DCF80000CDF800900194C8
S315000003602A465146DCF804B0D847274440B9BAF1CA
S31500000370000F01D1202D00D02544361BE1D10020ED
S3150000038003B0BDE8F08F00BFF0B50446154687B050
S3150000039001B1016035B304AF002201253B4620467A
S315000003A011460095FFF74CFFB8B99DF810102A4D7D
S315000003B001F0010284F8E8202A68064684F8EA106B
S315000003C05AB11378F7B21BB934E012F8013F8BB378
S315000003D08B42FAD1013784F8E970002384F8B830EB
S315000003E007B0F0BD012604AF3B4611222946204640
S315000003F00096FFF725FF0028EFD1049B294623F03E
S315000004000203CDE9043311222046009605ABFFF71F
S315000004108DFF20B1E1E79DF80F30FF2B10D10022B0
S31500000420204611460DF10F030096FFF709FF00283D
S31500000430F1D0D2E755F8042F0136002AC1D1CCE716
S315000004401025014612222046009605AB8DF80F5066
S315000004500595FFF76BFF9FE7800700202DE9F04128
S315000004600E6884B0B6F5007F2ADC01250C4600959F
S31500000470102200210DF10B030746FFF7E1FE0546AA
S31500000480D0B9002E9DF80B8013DBB6F5007F07BFB1
S31500000490E6231E4606F0FE0633468DF80B6001265F
S315000004A0039338461022002103AB0096FFF73EFF68
S315000004B058B908F0FE032360284604B0BDE8F08171
S315000004C00225284604B0BDE8F0810546F4E700BFE2
S315000004D0F0B508290E46044617468BB02BD00C29DA
S315000004E004D1002301228365026283630125217FF3
S315000004F006F07F0381F080010B432177029300957C
S3150000050030220021204602ABFFF710FF054678B9DE
S3150000051023689A6818689047054648B917B194F851
S315000005203C303B60082E21D00C2E16D0062E0CD067
S3150000053028460BB0F0BD00230222C0E91233C0E901
S315000005401033C0E90C338262D0E794F83C30382B84
S3150000055008BF122528460BB0F0BD2846A36DA26B36
S315000005601B0C1B041343A3650BB0F0BD2026626B66
S3150000057001212264204602AB0096FFF761FE0028A7
S31500000580D6D1DDE902230499C4E91123DDE9052367
S31500000590C4E913126365CBE770B50C46016884B0F5
S315000005A0CB6805461646039413B10868984788B980
S315000005B0A4F16003012B0FD9002303933246214691
S315000005C02846FFF785FF28B92B68DA6812B11A6941
S315000005D01868904704B070BD039B4BB104240121F9
S315000005E02846044A03AB0094FFF7A0FE0028F1D189
S315000005F00624E3E7007400200023F0B50C466226CB
S315000006009FB005466822194604A8039302961EF079
S31500000610E2FD002C4AD02368002B3DDB27D10322C4
S3150000062063680492002B3ED1224B4FF400421E46D3
S315000006300793059214240827C5F8E460012128468B
S315000006401D4A0DEB070300970394FFF76FFE60B991
S3150000065001212846194A04AB0094FFF767FE20B92A
S31500000660024606212846FFF733FF1FB0F0BD012BD7
S315000006701CD102216268049102B10693104B09A8AD
S315000006805A68DE681969CDE907629A686824059296
S3150000069054221EF079FDCEE701220A4B04921E4633
S315000006A005930793C6E701230693BDE702201FB013
S315000006B0F0BD00BF00D001010074002008740020C6
S315000006C04407002000204801002330B5022987B0E6
S315000006D00446CDE9043306D0032921D001291AD0D6
S315000006E0022007B030BD632104220123CDE90312A5
S315000006F005930C25012120460F4A0DEB05030095B5
S31500000700FFF714FE0028ECD1024606212046FFF72B
S31500000710DFFE07B030BD63220423CDE90323E8E7FB
S315000007206422C0F8A830C0F8AC30C0F8B030C0F8C9
S31500000730B4300392DDE700BF0074002001232DE9E9
S31500000740F04717468361826843680669054688460E
S3150000075084B0A2EB0309002E5BD0C6F10404BC42B0
S31500000760A8BF3C46002C40F09780042E00F0A180E4
S315000007700026002F6CD0032F3CD94FF0010AEA68FF
S31500000780A9EB0204BC4228BF3C4634F0030446D120
S31500000790A24201D0AB6953BB0121284602AAFFF74A
S315000007A097FE0646002853D19DF80840E860002CC5
S315000007B04DD12B6885F83D009A6818689047064623
S315000007C000283AD1A97F95F83D400391332201468E
S315000007D003AB2846CDF800A0FFF7A8FD14F0600F84
S315000007E035D1122C43D0142C16D10223AB617FB322
S315000007F0032FC4D83A46414605F114001EF0C4FC46
S31500000800AB692F61022B26D00926304604B0BDE81D
S31500000810F087002FAFD1F7E7012CE8D017E0696821
S3150000082043460A44284601210094FFF77FFDEA6803
S315000008303F1B2244A044EA60AAE70126AF7F332289
S315000008402146284603AB00960397FFF76FFD012666
S31500000850AB69022BD8D195F8B930D90712D43046F6
S3150000086043F0010385F8B93004B0BDE8F0870223F0
S31500000870324601212846AB61FFF72AFE0028B6D092
S315000008800646E5E79A07C0D4304643F0020385F8EA
S31500000890B93004B0BDE8F0871430304422461EF06B
S315000008A073FC28693F1B2618042EA0442E617FF492
S315000008B05FAF00966968EA6805F114030A442846A2
S315000008C00121FFF733FD00232B61EB680646043355
S315000008D0EB60002F7FF44FAFBAE700BF2DE9F04180
S315000008E0044690F8B93084B05ABB03F00302012ADB
S315000008F037D099070FD56121204603AAFFF74CFE92
S31500000900054620B99DF80C30012B04D00125284658
S3150000091004B0BDE8F081002394F8B9206360D207E3
S31500000920A360E36023616361A36115D4584A594B00
S31500000930C4E90123092500232846A36104B0BDE8C4
S31500000940F081DB0703D485696DB1012DDED104B0DA
S31500000950BDE8F041FFF7F2BE4F4A4D4BC4E9012313
S31500000960E8E76021C8E74FF00108FF230F4603932D
S31500000970294603AB1646CDF800800222FFF7D6FCC7
S31500000980294612222046CDF800800DF10B03FFF711
S3150000099057FC05460028BAD19DF80B30014643F0B6
S315000009A010038DF80B30039312222046CDF80080F9
S315000009B003ABFFF7BBFC05460028A8D14FF0260C79
S315000009C00146102203AB2046CDF800808DF80BC0FF
S315000009D0CDF80CC0FFF7AAFC4FF0060C11222946F1
S315000009E084F81F8084F83E8003AB2046CDF8008053
S315000009F08DF80BC0CDF80CC0FFF798FC9DF80B30B6
S31500000A00112243EA08038DF80B300393294603AB02
S31500000A102046CDF80080FFF789FC236884F83D5016
S31500000A209A681868904778BB94F83D308DF80B307B
S31500000A30112B7FF46BAF002220461146FFF748FDCD
S31500000A40054600287FF463AF024601462046FFF7BD
S31500000A503FFD054600287FF45AAF0921204603AA28
S31500000A60FFF736FD054600287FF451AF9DF80C30A0
S31500000A70012B8DF80B307FF449AF324639462046BC
S31500000A80FFF75CFE054642E79DF80B30D0E700BF56
S31500000A90007C00200080002000740020F0B50023B8
S31500000AA073241646026885B0CDE90243D36805462D
S31500000AB00F461BB110689847044618BB2EB308248E
S31500000AC010260DEB0403009401212846284A0396BC
S31500000AD0FFF72CFC044650BB3B4601212846254A1D
S31500000AE00096FFF723FC044608BB0246062128466B
S31500000AF0FFF7EEFC0446D0B92A68136913B11068F3
S31500000B0098470446204605B0F0BD082401210DEBA8
S31500000B10040300942846164AFFF708FC044630B939
S31500000B20324606212846FFF7D3FC044640B12B681F
S31500000B301A69002AE6D018689047204605B0F0BD2D
S31500000B4010243B4628460C4A01210094FFF778FB07
S31500000B502A680546136943B110689847002D14BFEB
S31500000B602C460446204605B0F0BD0446CAE700BF41
S31500000B700074002008740020007500202DE9F04163
S31500000B804FF0000C0C464FF001089CB0CDF80080E9
S31500000B901746614602220DF11503C4F800C0064649
S31500000BA0FFF74EFB0546F8B917BB9DF8153013F055
S31500000BB002072FD11A0703D5226842F004022260E9
S31500000BC0580761D4D90603D5226842F04002226054
S31500000BD09A0603D5226842F001022260180600F147
S31500000BE0A980590600F1868028461CB0BDE8F08130
S31500000BF09DF815200146069230460222CDF8008067
S31500000C0006ABFFF793FB0028CFD0054628461CB05D
S31500000C10BDE8F08101273122002130460DF117038E
S31500000C200097FFF70DFB0028EFD19DF81730727F74
S31500000C3003F08001914200F02381F27F002A00F048
S31500000C4024810A460021F17782F08002727713F040
S31500000C50400103F07F028DF8172086F83C2040F013
S31500000C602181980600F11481002A40F0C780B36AFA
S31500000C70012B00F03881082723683B4323609DF849
S31500000C8015301A079CD597E70127322200213046F6
S31500000C900DF116030097FFF7D3FA0028B5D19DF89A
S31500000CA0162002F07F0302F08001B1778DF816302E
S31500000CB086F83D30372B43D8DFE803F0BE4C42427E
S31500000CC0424242424242424242424242A8A54CD994
S31500000CD0D642424CD44242424242424242424242BE
S31500000CE042424242424242424242424242424242DE
S31500000CF0D142CECB0425012100953046A54A06F106
S31500000D002403FFF79DFA054600287FF46DAF726A4B
S31500000D10C2F307430A3B0A2B08D8DFE803F0065E56
S31500000D205506063F260723201D00082723683B4358
S31500000D30236059E72368122543F48033236053E781
S31500000D4012F0400740F0ED8023683B4323609DF896
S31500000D50153037E71027F7E74FF48077E6E74FF4CB
S31500000D600077E3E741F20807E0E74DF6AD6392B29C
S31500000D709A42DBD0337F47F0800783F080033377D6
S31500000D8043F00F034FF0010C06933046302200214A
S31500000D9006ABCDF800C0FFF7C9FAC7E74DF6AD635D
S31500000DA092B29A42C2D0337F304683F080033377C3
S31500000DB0012643F00F0206920021302206AB009670
S31500000DC02027FFF7B3FAB1E7337F92B283F08003AF
S31500000DD03377B26343F00B03D4E7B6F8583043EAEF
S31500000DE00242B265002AA0D096F8B9309A079CD480
S31500000DF043F00203082786F8B93097E7012A3FF443
S31500000E003AAF002738E742F210079DE701274FF077
S31500000E100008337FC6E90A7883F080033377F777D3
S31500000E2086F83E700693009730223046414606AB60
S31500000E30FFF77CFA474687E74FF0010C069133220D
S31500000E400021304606ABCDF800C01027FFF76EFA3A
S31500000E507AE74FF4826777E74FF4016774E74FF458
S31500000E60887771E780276FE744F210076CE7012364
S31500000E7000221027C6E90A32F37786F83E3063E788
S31500000E80F07F00283FF4E0AEDBE638460546BDE6D7
S31500000E90B36A012B2BD0002BB3D1382AB1D148F23B
S31500000EA00807E9E6B26A022AABD1326B0132052A9B
S31500000EB032632DD80127726B9B0643EA9213327F69
S31500000EC0736382F08003337743F004030693302282
S31500000ED00021304606AB0097FFF728FA00287FF47A
S31500000EE094AE0746C8E600230827B362C4E6F26A52
S31500000EF00132022AF262F6D80093327F304682F03F
S31500000F0080023277069206AB3022FFF70FFAE5E74A
S31500000F10726B9B0743EA9203002208277363B2624F
S31500000F20AAE64FF0010802F03F0786F8BB700322DD
S31500000F30002130460DF11703CDF80080FFF780F948
S31500000F4000287FF462AE9DF8173083B906AB4FF0E8
S31500000F50010CB27F0021069230463322CDF800C044
S31500000F60FFF7E4F9F36F02270133F367ECE6582342
S31500000F7041460093304606AB074A0393FFF760F9F4
S31500000F8000287FF442AE099907F12602039B46F832
S31500000F902210DCE794900040C07B00202DE9F04F42
S31500000FA004460F46154687B0002B62D00423D0F8BE
S31500000FB0D8A000930121D0F8D02005ABD0F8CCB052
S31500000FC0D0F8D460FFF73CF9002866D106EB0B0990
S31500000FD02E68B6FBFAF60AFB06F62E60002F7CD0CA
S31500000FE0D4F8E080059AB8F1000F59D0904594BF27
S31500000FF00023D4F8D430A2EB0802D21877D0964258
S3150000100028BF164606EB08034B452E6051D8002232
S315000010103B46454603922A46012120460096FFF7A5
S315000010200FF9002839D1039BA8EB0B08B8FBFAF897
S3150000103035441E44D4E93513B1FBF3F13E44D4F8EC
S31500001040DC70C4F8E05007EB880207EB8103101D43
S3150000105098424ED9A1EB08018D0033460121204666
S315000010600095FFF7EDF8C0B93A462E44C5F10407DE
S3150000107040E004260121234A05AB0096FFF7E0F87D
S3150000108058B92E68059A3B4602FB06F601212E60EA
S3150000109020461D4A0096FFF7D3F807B0BDE8F08F4B
S315000010A05A450CBFA9EB0A08A2EB0A08C4F8E0806F
S315000010B09CE7A9EB08030393009342463B460121B4
S315000010C02046FFF7BDF80028E7D12E68039BA6EB64
S315000010D009065D464644FB189DE7059A931B5B454A
S315000010E03CBF02EB09039B1BC4F8E030D5E70D209B
S315000010F0D3E704273346012120460097FFF7A0F8DF
S31500001100CBE700BF0074002004740020F0B5002374
S315000011106F241746026885B0CDE90243D3680546B9
S315000011200E461BB110689847044648B95FB9D5F812
S31500001130D83033602B681C6914B11868A047044680
S31500001140204605B0F0BD082401210DEB04030094F0
S315000011502846144AFFF7EAF8044640B12A6813699C
S31500001160002BEDD010689847204605B0F0BD02462A
S3150000117006212846FFF7ACF904460028EED11424D0
S31500001180012100942846074A05F1CC03FFF758F8D9
S3150000119004460028E2D1D5F8D8303360C5F8E0001F
S315000011A0C8E700BF007400202DE9F0416622102434
S315000011B0002386B0CDE9034202680593D36805464D
S315000011C00E461BB1106898470446B8B9D6B13368C5
S315000011D0C3B17368B3B1B368A3B1F36893B108241C
S315000011E0012100942846694A04ABFFF79FF804469C
S315000011F098B12A6813690BB110689847204606B063
S31500001200BDE8F0812B681C69002CF7D01868A04750
S315000012100446204606B0BDE8F0810246062128466F
S31500001220FFF756F904460028E3D104270121284692
S31500001230574A06F114030097FFF702F80446002800
S31500001240D7D101212846534A009706F11803FEF725
S31500001250F7FF04460028CCD1012128464E4A0097C4
S3150000126006F11C03FEF7ECFF04460028C1D101215C
S3150000127028464A4A06F120030097FEF7E1FFB846E2
S3150000128004460028B5D101212846454A009703ABFC
S31500001290FEF7D6FF04460028ABD17369414F009391
S315000012A03A46012128463368FEF7CAFF044600285D
S315000012B09FD1736901211F44B3693A4600932846BA
S315000012C07368FEF7BDFF0446002892D1B369012179
S315000012D01F44F3693A4600932846B368FEF7B0FF09
S315000012E00446002885D1F36901211F44336A3A4632
S315000012F000932846F368FEF7A3FF044600287FF410
S3150000130078AF336A01211F44039B3A46009328466F
S315000013103369FEF795FF044600287FF46AAF039B06
S3150000132001211F443A462846CDF8008006F12403E1
S31500001330FEF786FF044600287FF45BAF736A4744D6
S315000013404FEA83083A46B36A01212846CDF8008061
S31500001350FEF776FF044600287FF44BAF1024F36AAD
S3150000136007EB0802009401212846FEF769FF2A6868
S3150000137004461369002B3FF441AF10689847002CD0
S3150000138008BF0446204606B0BDE8F0810074002080
S315000013900075002004750020087500200C750020DB
S315000013A01075002014750020002370B582B042F23B
S315000013B0107405460E4601930AE0019B1E420ED1AB
S315000013C02B685B6913B14FF47A709847013C08D0DB
S315000013D00122284601A9FFF7D1FB0028EDD002B073
S315000013E070BD082002B070BD012330B5002583B062
S315000013F0202101AAC37780F83E3004460195FFF705
S31500001400CBF808B103B030BD4FF480412046FFF75A
S31500001410CBFF0028F6D10821204601AAFFF7BCF829
S3150000142003B030BD30B5042485B0054D0121054A11
S3150000143003AB00940395FEF779FF05B030BD00BFFE
S31500001440544E5953001C00202DE9F0434FF0040878
S315000014500D4687B0CDF800800121354A04AB06461B
S315000014602F68FEF7EDFE10B107B0BDE8F0834FF030
S315000014700109049C09FA07F73C43304649462C4AC1
S31500001480CDF8008005ABCDE90444FEF74FFF0028F8
S31500001490EAD16B68BCB249463F0CCDF8008033B345
S315000014A0002C2ED03046234A05AB0594FEF73EFFAE
S315000014B00028D9D1204A04213046009104AB0121ED
S315000014C00392FEF7BDFE0028CED1DDE90323A9680D
S315000014D0274349B31F439F420497C5D0042430468F
S315000014E0012105AB00940597FEF720FFBCE794B1F8
S315000014F03046124A05AB0594FEF718FF0028D9D0EE
S31500001500B2E730460E4A05AB0597FEF70FFF0028F7
S31500001510AAD10C4ACFE730460B4A05AB0597FEF732
S3150000152005FF0028F5D09FE723EA0707D3E700BFAA
S315000015301C9000401410014004100140101001409E
S315000015401400014004000140100001402DE9F04F55
S31500001550002585B011F0FF010646DDE90F879A46A2
S31500001560CDE90055CDE902550E9C06D113065FFA6A
S3150000157082F95FD449F080090AE0D2B21F2A59D80D
S31500001580042957D801F1FF3942EA49195FFA89F966
S31500001590119B4FEA0929B3F1000B18BF4FF0010B5D
S315000015A04FEA4B0BACBB002F61D00C2F3D4628BF3A
S315000015B00C257F1B22464AD002230024A90513438B
S315000015C043EA09030B43012243F00103694630460F
S315000015D00093FFF763FA024668BB0D213046FEF71B
S315000015E077FF024638BB69463046FFF757FA024690
S315000015F008BB009BDA072DD413F0C00FC3F381128A
S315000016002DD140462A4601A91DF0BEFDA844002C56
S31500001610C9D00C2C254628BF0C2551462A4601A8C0
S315000016201DF0B2FD641BAA4409D000212A0402233E
S315000016300D46C4E70222104605B0BDE8F08FC7B9D3
S3150000164039462A043D4600275B463C46B7E72F4607
S31500001650A905F7E70122104605B0BDE8F08F012A7B
S3150000166014BF01220822104605B0BDE8F08F3A46A5
S31500001670E1E72C0499E700BFF1B10A291AD1F0B5C8
S31500001680144687B0D2B10827712600240121134AD7
S3150000169004AB00970546CDE90464FEF747FED8B9CA
S315000016A0024606212846FEF713FFA8B9C5F8E00052
S315000016B007B0F0BD022070470846704702211F257B
S315000016C00922CDE90244019404AB00918DF8114042
S315000016D08DF81050FFF73AFF07B0F0BD00740020F8
S315000016E070B5042584B00121094A03AB0095044670
S315000016F0FEF7A6FD50B9039A012122F4C046204602
S31500001700034A03AB00950396FEF710FE04B070BDC6
S315000017103C9000402DE9F04F87B0DDF840A0002A4C
S315000017206AD00646154610249946DFF8FC808B05DC
S315000017300393AC4228BF2C4604272D1B42464FF08C
S315000017400101304604AB00970CBFD3464FF0000BA7
S31500001750FEF776FD10B107B0BDE8F08F049B621E60
S3150000176023F4FC2343EAC233039A23F440031343CE
S3150000177043F4611343F004030493424601213046C7
S31500001780009704ABFEF7D2FD0028E4D142460121C2
S31500001790304605AB0097FEF753FD0028DBD1059BCD
S315000017A05B01F3D5E31C23F00303009301214B46B1
S315000017B030461C4AFEF744FD0028CCD142460121A2
S315000017C03046009704ABFEF73BFD0028C3D1049BCF
S315000017D023F4C043BBF1000F12D143F4C04304937A
S315000017E0424601213046009704ABFEF79FFD0028D4
S315000017F0B1D1A144002D9CD1002007B0BDE8F08FE7
S3150000180043F400530493424601213046009704AB4B
S31500001810FEF78CFD00289ED13046FFF761FF0028B9
S31500001820E7D098E7509000403C9000402DE9F04FFB
S3150000183087B0DDF840A0002A00F08B8006461446EB
S3150000184010259846DFF83C918B050393A54228BFE7
S3150000185025460427641B4A464FF00101304604AB77
S3150000186000970CBFD3464FF0000BFEF7E9FC10B112
S3150000187007B0BDE8F08F049B039A23F4400323F4DA
S31500001880C04323F00403134343F4601343F40053AB
S3150000189004934A4601213046009704ABFEF746FD05
S315000018A00028E5D1EB1C23F00303009301214346F6
S315000018B03046334AFEF73AFD0028D9D14A4601217F
S315000018C03046009704ABFEF7BBFC0028D0D1049B42
S315000018D06A1E23F4FC2343EAC23343F48043049391
S315000018E04A4601213046009704ABFEF71FFD00284B
S315000018F0BED14A460121304605AB0097FEF7A0FC53
S315000019000028B5D1059B5B01F3D54A460121304637
S31500001910009704ABFEF794FC0028A9D1049B23F49E
S31500001920C043BBF1000F18D043F4005304934A465A
S3150000193001213046009704ABFEF7F8FC002897D14A
S315000019403046FFF7CDFE002892D1A844002C7FF444
S315000019507DAF002007B0BDE8F08F43F4C043049389
S315000019604A4601213046009704ABFEF7DFFC00280B
S315000019707FF47EAFA844002C7FF468AF0020E9E72F
S31500001980409000403C900040014B00201A60704798
S31500001990541200202DE9F04784B000AF0C46D7E979
S315000019A00C861546B8F1000F01D0002B46D1002C4D
S315000019B049D016F00304FD6040D1B8F1000F72D093
S315000019C0494DE9462B683344073323F00703ADEB53
S315000019D0030D4023FB7201F01DF90122214607F198
S315000019E00B0001F063F92146042207F10C0001F017
S315000019F05DF901F0EBF82A68C2F1440363F07F0356
S31500001A00FB7202EB060A01F005F90122214607F1F5
S31500001A100B0001F04BF969465246204601F046F9A3
S31500001A2001F0D4F829683246694440461DF0ACFB03
S31500001A30CD4600201037BD46BDE8F087022010379E
S31500001A40BD46BDE8F087FF2DF8D8B8F1000F16D0D7
S31500001A5065F07F053D7301F0DDF82146012207F1AF
S31500001A600C0001F023F932464146204601F01EF9EA
S31500001A7001F0ACF820461037BD46BDE8F0877B6024
S31500001A803D7301F0C7F80122414607F10C0001F051
S31500001A900DF97B6832464146184601F007F901F018
S31500001AA095F84046CBE706F10B0222F007026C469A
S31500001AB0ADEB020D68461946324640F8045B1DF050
S31500001AC063FB4023FB7201F0A5F80122414607F1B2
S31500001AD00B0001F0EBF824224146684601F0E6F8D7
S31500001AE001F074F8A546A4E75412002001F080BB6B
S31500001AF001F0ACBB012116F0EDBC00BF2DE9F041B1
S31500001B008046ADF5805D08460F4600F025FB061EB3
S31500001B101BDD0025741BB4F5805FA8BF4FF480540D
S31500001B2029466A462346384600F018FB224669468F
S31500001B304046FEF7D3FE254408B1092801D1AE423E
S31500001B40E8DC0DF5805DBDE8F0810920F9E700BF0E
S31500001B5088B101280DD110B50C4CA3697BB901469B
S31500001B6004F12000FEF7B0FD10B9A3690133A361AB
S31500001B7010BD0020704703210548FEF7A5BD04F1FE
S31500001B8020000221BDE81040FEF79EBDF0140020A3
S31500001B901015002038B5074D2B684BB104460A4690
S31500001BA0014605F12000FEF7E9FF2368EB6138BD29
S31500001BB0032038BDF01400202DE9F0431D4C97B0EA
S31500001BC0256895B31E46E3699D0704D4012528467A
S31500001BD017B0BDE8F08300238146884604F1200053
S31500001BE069461746E361FEF755FB05460028EED128
S31500001BF0019B5A06EAD594F8DB2003F03F0389F8E7
S31500001C0000209DF8132088F800303A70002EDED0B0
S31500001C1094F8DB10084A03EB411352F8231000290D
S31500001C20D5D030461DF075FDD1E70325284617B0FF
S31500001C30BDE8F083F0140020F0120020044B0146AA
S31500001C401A681AB103F12000FEF708BC032070479A
S31500001C50F014002030B594468E4605461C4683B0E7
S31500001C6029467246634600940248FFF753FD03B0C7
S31500001C7030BD00BF1015002030B594468E4605468F
S31500001C801C4683B029467246634600940248FFF715
S31500001C90CDFD03B030BD00BF1015002002207047F7
S31500001CA038B5084D2B6853B104460A46014605F17E
S31500001CB02000FFF72BFA08B923686B6138BD0320B3
S31500001CC038BD00BFF01400202DE9F0431A4E83B052
S31500001CD034682CB3054658B30F4690466946012230
S31500001CE006F120009946FEF749FFA8B9009B1B069E
S31500001CF00ED5F061203602E078B90198A0B901232B
S31500001D002946304601AA0197FFF748F90D28F3D175
S31500001D100D2003B0BDE8F083012003B0BDE8F083D9
S31500001D20032003B0BDE8F0834A462946C047E6E7EC
S31500001D30022003B0BDE8F083F01400208446034B74
S31500001D400A46034813F82C10FFF796BC101600201D
S31500001D50101500202DE9F0412A4D9AB00446174689
S31500001D600021582204A898461DF035FA2B68002B4E
S31500001D7038D0002C3BD0012201A905F12000FEF746
S31500001D80FDFE50BB019B9B0736D5E86104A905F112
S31500001D902000FEF77FFA064600BB024603A905F1BE
S31500001DA02000FFF7B3F90646C0B99DF81630072B99
S31500001DB014D1203503E0424621460298B847039BDA
S31500001DC0214602932846012302AAFFF7E7F80D28C9
S31500001DD004D00028EFD0064600E0012630461AB0AF
S31500001DE0BDE8F081032630461AB0BDE8F081022630
S31500001DF030461AB0BDE8F0810D2630461AB0BDE86F
S31500001E00F08100BFF01400204FF400732DE9F04775
S31500001E105C4C86B007460E46154600214FF490727C
S31500001E20204604F5887802931DF0D5F940465649B8
S31500001E3000F064F910B106B0BDE8F087AB234FF0AF
S31500001E40010A2022014600908DF80C3004EB0209AD
S31500001E504046CDF804A003ABC4F8109100F052F947
S31500001E600028E8D103AB0146009320220346CDF8B3
S31500001E7004A0404600F046F90028DCD14349444B13
S31500001E8002464B60434BC1E903008B60424B484618
S31500001E90C1F800804B61FEF777FA0028CBD1042DFC
S31500001EA0C9D0554525D9022D34D0032D21D102465E
S31500001EB001464846FEF712FD092851D00028BAD13E
S31500001EC0024601463548FEF709FD09284DD000288F
S31500001ED0B1D14FF480513148FFF766FA0028AAD1F4
S31500001EE0024601462D48FEF7F9FC092842D0002893
S31500001EF0A1D12A4802A9FEF7B1FA00289BD12748AA
S31500001F0003A9CDE90376FEF777FB002893D10123D9
S31500001F10236090E70723CDE9040A03A94846039303
S31500001F20FFF792FA002886D1CDE903A003A9484617
S31500001F30CDF814A0FFF788FA00287FF47CAF484656
S31500001F40FFF770FA48464FF40051FFF72DFA0028C4
S31500001F507FF471AF4846FFF747FA0028C9D06AE711
S31500001F6048460F49FFF7CAFDA8E70E490B48FFF799
S31500001F70C5FDACE70C490948FFF7C0FD0028B8D0FD
S31500001F8059E700BFF0140020001BB70058120020CC
S31500001F90052100001921000069210000101500200C
S31500001FA0FC0B0020BC0B0020200C00202DE9F04F7C
S31500001FB00024ADF54F7D0546174688462C2221465E
S31500001FC023A89946CDE90644CDE90844CDE90A445B
S31500001FD0CDE90C44CDE90E44CDE91044CDE91244D7
S31500001FE0CDE9144422944EAE1DF0F5F84FF4FE727E
S31500001FF021464FA8CDE90244CDE9044434601DF0E2
S31500002000EAF83A480368002B57D006AB16930EAB96
S31500002010179322AB189302ABCDE91963344B2030EA
S31500002020219316A92EAB2093FFF7BEF8824600280F
S315000020303ED11E9A1F9B032A2B6045D9DFF8B4B008
S3150000204001465B4605467057741943F8044B013147
S3150000205058B105F1010C06EB0C0E01E00CF1010C78
S315000020601EF9014B6546002CF8D10135501B03289B
S3150000207001D92029E7D10023DFF87CE01D460BEBD0
S31500002080810C0BE083420DBF284600200125013557
S3150000209000EB4310DC454EF8204016D05BF8044BAD
S315000020A0184694F90230303B032BEBD94FF0FF3A38
S315000020B050460DF54F7DBDE8F08F4FF0030A5046B0
S315000020C00DF54F7DBDE8F08F0146C8F80010002FD2
S315000020D0EED03146384601921DF056F85046019A28
S315000020E0C9F800200DF54F7DBDE8F08FF0140020F3
S315000020F01016002070120020F01200200422104456
S31500002100FFF742BC30B4DDE9024500B10430CDE949
S31500002110024530BCFFF73EBCF0B547F231550646E6
S31500002120076883B006E0019B13F0980FF3600DD1AA
S31500002130013D0BD00122384601A9FEF71FFD0446DA
S315000021400028F0D0014603481DF044F9204603B0AC
S31500002150F0BD00BFFC280200FFF7C8BC10B51C4646
S31500002160FFF7C6FC204610BD08B5FFF7C3FC0020EC
S3150000217008BD00BF002370B584B00193837904467F
S31500002180013B092B10D8DFE803F00F0F1A0F0F0FD2
S31500002190240F051C314A0023106804F1080101AA26
S315000021A017F030F8012800D100BF019B3BB14FF07A
S315000021B080522B4B5A60BFF34F8FBFF36F8F04B023
S315000021C070BD284B01A9186817F090F80128ECD1CA
S315000021D0EAE7254D02A92B6F9847BDF8083003F4AE
S315000021E07F43B3F5045F24D0B3F5005F28D0A389FD
S315000021F003F47F43B3F5085FD7D11C4E0222314664
S315000022002046AB6C98470028CFD1E3890124328859
S31500002210014663F30002328032881548C3F3400357
S3150000222063F3410232802B6D047012489847019B7C
S31500002230BCE7EB6C072220460F499847019BB5E7A0
S315000022400D4C07222146AB6C0A4898470B4A216879
S315000022501368994218BF1160019BA7E73C640020F0
S3150000226000ED00E024650020C83503002416002098
S3150000227020160020DC6500202816002030160020DD
S31500002280134A38B513490546126813489047044661
S31500002290D8B9D5B1114D2B88DA0705D4012017F02E
S315000022A023FF2B88DB07F9D500230D4A1946106852
S315000022B01A4616F089FE012800D100BF0122094BFB
S315000022C04FF4FA701A7017F00FFF204638BD00BFA2
S315000022D0C83503007C310300DC650020241600208D
S315000022E0D8640020201600202DE9F84F1A4B1B78E1
S315000022F063B380460E4617460025184BDFF86490F8
S31500002300D3F80CA047F23052741B944228BF1446EF
S3150000231080234846224608EB0501D047834648B944
S3150000232087B10F4B3946186817F00AF9012806D10C
S3150000233000BF2544B542E5D35846BDE8F88F4FF0B7
S31500002340120BF7E7012017F0CFFEF2E7DFF818B01F
S315000023505846BDE8F88F00BF20160020C835030098
S3150000236024650020DC650020925F0100F8B5144B5F
S315000023701B780BB3134F0D46BC68014616468023E7
S315000023804FF400721048A047044688B90F4B3246F6
S31500002390186829462C6017F011F8012806D0214646
S315000023A080223B69084898472C6014242046F8BDD3
S315000023B040F2DC542046F8BD054C2046F8BD00BF6F
S315000023C020160020C8350300DC6500203C64002090
S315000023D0925F0100014B02485B681847C83503004D
S315000023E0DC65002010B584460C4682B0002302222C
S315000023F0164801A98DF804C08DF8054014F020FF99
S3150000240040B104463F22124912481CF0E3FF204621
S3150000241002B010BD10494FF6FE73087000E093B18C
S315000024200A78013B9BB2002AF9D00B78012B4FF0BA
S31500002430000304D01C4620460B7002B010BD4FF4BA
S3150000244096740B70DEE74FF49674DBE74466002063
S315000024503C290200342902003409002001490248BF
S3150000246014F0DEBFBC31030044660020014815F0BD
S3150000247011B800BF4466002008B505210920FFF702
S31500002480B1FF01210846FFF7ADFF18210520FFF730
S31500002490A9FFD8210520FFF7A5FF04210720FFF794
S315000024A0A1FFBDE8084084210720FFF79BBF00BFBE
S315000024B008B504210720FFF795FFBDE8084058211D
S315000024C00520FFF78FBF00BF10B10279014B1A70CC
S315000024D0704700BF340900200149024814F0B6B91C
S315000024E06C320300CC6600200379022B02D1012254
S315000024F0014B1A70704700BF3816002010B50B4903
S315000025000B4815F067FA30B9094815F0A5FA0446E4
S3150000251038B9204610BD044606481CF0E1FF2046A7
S3150000252010BD04481CF0DCFF204610BD343103000A
S315000025303463002050290200024A136801331360F5
S31500002540704700BF3C1600200149024814F07EB9CE
S31500002550A0320300FC660020014814F0A5B800BFB5
S31500002560FC6600200379022B04D0042B09D0012B32
S3150000257004D0704701220B4B1A7070470A4A137039
S3150000258070470A490B889BB25A1C92B20A80084AC5
S315000025908168D15483680D2BEBD10122024B1A704E
S315000025A0704700BF4818002044180020401600203D
S315000025B04416002070B50E46154600F0BDFE0228F2
S315000025C00ED000230A4C2A4631460A48237014F0DE
S315000025D0D1F800B100BE2378002BFCD0284670BD90
S315000025E0642229463046FFF77FFE284670BD00BFAD
S315000025F048180020FC66002070B5044600F09CFEDA
S31500002600022824D0144D2B889BB253B94FF0FF36C5
S31500002610124C22882B8892B29BB29A420AD030463C
S3150000262070BD0E4C0E4923889BB25A1C92B2CE56F0
S315000026302280EEE723889BB2002BF0D000214FF4D6
S3150000264000720748218029801CF0C5FDE7E7204677
S31500002650BDE870400CF048BF401600204618002028
S315000026604416002018B10449044814F0A7B80449D8
S31500002670024814F0A3B800BF7C290200FC660020C3
S31500002680782902002DE9F0410F46154682B038B38D
S31500002690012821D13F2A58D806462F492F4815F040
S315000026A005FBDFF8B8800DF1070403E09DF807305D
S315000026B0012B05D12146404615F02AFA0028F5D00F
S315000026C032463946254815F00DFC0446234815F0D8
S315000026D02DFA002C18BF0025284602B0BDE8F0816F
S315000026E0B2F5004F2ED3C2F30E034FEAD2380BB128
S315000026F008F1010817F01CFC72B61749174815F0C7
S31500002700D5FA164E0DF1070403E09DF80730012BAC
S3150000271005D12146304615F0FBF90028F5D0424692
S3150000272039460E4815F0DEFB04460C4815F0FEF956
S3150000273062B617F005FC002C18BF0025284602B02B
S31500002740BDE8F0814FF00108D4E7930616BF900963
S315000027509609461CA1E700BFA831030000660020C9
S315000027602DE9F0430F4615469946A3B0002800F020
S315000027709A80012840F08E80032B2BD8002202AECF
S31500002780029223B11A46294630461CF0FDFC9A49AE
S315000027909A4815F08BFA994C0DF1070503E09DF860
S315000027A00730012B05D12946204615F0B1F900283E
S315000027B0F5D004233A463146904815F055FB0446B9
S315000027C08E4815F0B3F9002C14BF4FF000084FF0F7
S315000027D0040861E013F0030F874988480CBF984648
S315000027E003F1010823F00304DFF8109215F05EFAF6
S315000027F002AE03E09DF80830012B05D1314648466C
S3150000280015F086F90028F5D023463A4629467B4836
S3150000281015F02AFB8146794815F088F9444536D0EB
S31500002820B9F1000F36D14B46CDF80890A8EB040855
S31500002830A94419F804105A1C88336B4403F8801C09
S3150000284093B243459946F3D36B496C4815F02EFA7B
S31500002850DFF8A88127440DF1070503E09DF807304E
S31500002860012B05D12946404615F052F90028F5D02E
S3150000287004233A463146614815F0F6FA81465F4828
S3150000288015F054F9B9F1000F00D18034A046B9F122
S31500002890000F01D04FF00008584815F047F94046A0
S315000028A023B0BDE8F0837F2B37D8014602907C2207
S315000028B003A81CF090FC02AEB9F1000F04D04A4602
S315000028C0294630461CF060FC17F032FB72B64A49C6
S315000028D04A4815F0EBF9494C0DF1070503E09DF860
S315000028E00730012B05D12946204615F011F900289D
S315000028F0F5D080233A463146404815F0B5FA0446ED
S315000029003E4815F013F962B617F01AFB002C14BFF7
S315000029104FF000084FF08008BEE713F07F0F0CBFA2
S315000029201C465C1C23F07F0817F002FB72B6324986
S31500002930324815F0BBF9DFF8C49002AE03E09DF80B
S315000029400830012B05D13146484615F0E1F800283C
S31500002950F5D043463A462946284815F085FA814679
S31500002960264815F0E3F862B617F0EAFA44458ED029
S31500002970B9F1000F8ED17C22494603A8CDF8089004
S315000029801CF029FC4B46A4EB0804A94419F80810CE
S315000029905A1C88336B4403F8801C93B2A3429946B1
S315000029A0F3D317F0C5FA474472B61349134815F026
S315000029B07DF9124C0DF1070503E09DF80730012B58
S315000029C005D12946204615F0A3F80028F5D0802326
S315000029D03A463146094815F047FA8146074815F048
S315000029E0A5F862B617F0ACFAB9F1000F7FF452AF52
S315000029F008F1800850E700BFA831030000660020F8
S31500002A00B0FBF1F0704700BF022824D8124B89B9F9
S31500002A1033F810201149130A1B0153FA82F251F8B8
S31500002A20223023F0011323F4404343F0050341F819
S31500002A302230704733F810200849130A1B0153FA55
S31500002A4082F251F8223023F0011323F4404343F07D
S31500002A50040341F82230704780290200000808402C
S31500002A6003460022196010469A8170470122024BE4
S31500002A7000201A70704700BFC46C002000234FF07E
S31500002A80010C027B184681F802C00A704B70704731
S31500002A900346002210B49C6810460C605C685B7BA1
S31500002AA04C600A725DF8044B4B7270470020704709
S31500002AB010B5044600F034FC012805D00123064A6F
S31500002AC000202373137010BD00F024FC4FF4007334
S31500002AD0C4E90103F2E700BFC46C002008B500207A
S31500002AE000F0CCFF0122024B00201A7008BD00BF87
S31500002AF0C46C002008B5002001F01AF80122024B30
S31500002B0000201A7008BD00BFC46C002010B5094C27
S31500002B102378012B07D001220749084803F06EF8F5
S31500002B2010B10023237010BD0123054A23701070D5
S31500002B3010BD00BFB81C0020102C03005C1800203C
S31500002B40B91C002008B503460A460248194603F098
S31500002B507FF808BD901A002008B5024803F0BEFBB6
S31500002B6008BD00BF901A0020844610B5002482B02C
S31500002B700A4601AB61460348019403F061FA0198E5
S31500002B8002B010BD901A0020844600B583B00A46F4
S31500002B9001AB6146034803F093F9019803B05DF871
S31500002BA004FB00BF901A002006490748CA6C024081
S31500002BB042F00502CA640B6D034043F005030B6542
S31500002BC0704700BF00080840FE3FFEFF0649074861
S31500002BD00A6D024042F005020A65CB6C034043F0E1
S31500002BE00503CB64704700BF00080840FE3FFEFFA8
S31500002BF006490748CA6C024042F00502CA640B6DDA
S31500002C00034043F004030B65704700BF000808400B
S31500002C10FE3FFEFF064907480A6D024042F00502E4
S31500002C200A65CB6C034043F00403CB64704700BFD6
S31500002C3000080840FE3FFEFF10B51149114813F089
S31500002C405BFA0446B8B9104B1048D96C014041F004
S31500002C500501D964196D014041F005011965196D29
S31500002C60014041F005011965DA6C024042F00502A7
S31500002C702046DA6410BD06481CF032FC204610BD22
S31500002C80EC3103008466002000080840FE3FFEFF8A
S31500002C90B82902000379012B03D00222024B1A70D5
S31500002CA07047014A13707047BA1C002030B51346AE
S31500002CB007250022184C83B0227000950A4601466B
S31500002CC0164813F011FAA8B94FF0FF3301E0013BA3
S31500002CD01DD02278012AFAD12378012B11D04FF486
S31500002CE096750023294623700D481CF073FB284671
S31500002CF003B030BD05460B481CF0F2FB284603B076
S31500002D0030BD00231D462846237003B030BD142570
S31500002D1023702946E8E700BFBA1C0020846600201D
S31500002D20082A0200E8290200FF2070B51024274A6D
S31500002D302749D36C84B00B4043F00503D364136D6D
S31500002D400B4043F0040313658DF8060001220021B1
S31500002D500DF10600FFF7AAFF631E13F0FF04F5D17D
S31500002D60402295234FF4FA668DF809408DF80A4003
S31500002D708DF80B408DF80C400DF10E058DF80820EE
S31500002D808DF80D3002AC0122204600211444FFF7D5
S31500002D908DFFAC42F7D10A2401220DF107010DF196
S31500002DA00600FFF783FF9DF80730621E013BDBB28A
S31500002DB0FD2B07D912F0FF04EED1013EE2D13046D9
S31500002DC004B070BD012004B070BD00BF000808400B
S31500002DD0FE3FFEFF2DE9F04FD9B004AD2E4600248C
S31500002DE0AF4BCDE909440FCB07C63380AD4E012268
S31500002DF03046AD49CDE90D44CDE90F4408940B9416
S31500002E000294ADF80C400C94119402F0F7FE0746BC
S31500002E1010B159B0BDE8F08FB3697289023B02FB6D
S31500002E2003F3A24A284612A9136003F023FB0428E1
S31500002E30044600F0CE812B463A469D499D4801F056
S31500002E404DFB4FF0400B02469B4B9C490CA81A6069
S31500002E501CF0D6FB3A46CDE900B5994B99490CA82A
S31500002E6001F02EFB2023984A00939849984B019530
S31500002E700CA801F025FBCDE900B5964B964A97497B
S31500002E800CA801F01DFBCDE900B5954B954A964976
S31500002E900CA801F015FB0823944E0093944A95491B
S31500002EA00CA80195A6F108033C46DFF8F0A2DFF86E
S31500002EB0F092DFF8F08201F003FB0EE09DF821307E
S31500002EC0652B1CD19DF82230642B18D10123336069
S31500002ED001340A2C06F1040620D01027224651465A
S31500002EE002A81CF08DFB08AB4A46404602A9019594
S31500002EF0009701F0E5FA9DF82030722BDED005220E
S31500002F007D4908A81CF038FC002840F0B580022353
S31500002F1001340A2C336006F10406DED12B46012269
S31500002F207649774801F0DAFA8446764F2B462246F0
S31500002F3075497648C7F800C001F0D0FA0746744CC8
S31500002F402B46002273497448276301F0C7FA0746E7
S31500002F502B46012271497248E76301F0BFFA074622
S31500002F602B4600226F496E48676301F0B7FA0746A1
S31500002F702B4600226C496D48A76301F0AFFA202763
S31500002F808446019504F5CA73C4F840C0684A0097A0
S31500002F906849664801F094FA2B460022664967485C
S31500002FA001F09CFA40260746CDE90065E764042750
S31500002FB004F15003624A6349604801F081FA04F162
S31500002FC09003CDE90065604A60495C4801F078FAF3
S31500002FD004F1D00300975E4A5E490195574801F017
S31500002FE06FFA04F58A73CDE900655B4A5B495C4874
S31500002FF001F066FA04F1D403CDE90065564A594951
S31500003000574801F05DFA04F5AA73CDE90065524A06
S315000030105549534801F054FA2B4600225349544867
S3150000302001F05CFA07462B46022252495248A76431
S3150000303001F054FA0746CDE90065504B464A50491F
S3150000304067644D4801F03CFACDE900654D4B424AB4
S315000030504D49494801F034FA4C4BCDE900653E4AEA
S315000030604B49454801F02CFA00220F49104602F060
S31500003070C5FD59B0BDE8F08F0422464908A81CF0EA
S315000030807BFB10B90323336022E70422424908A8D8
S315000030901CF072FB002840F087800B23336017E793
S315000030A0FC2C0200BC1C0020102C0300F01E00208B
S315000030B08C2B0200342A0200F41E0020442A02004F
S315000030C0F81E0020502A02005C2A0200702A020024
S315000030D0FC0B0020BC0B0020742A0200882A020088
S315000030E0200C00208C2A02009C2A0200100A0020D4
S315000030F0A02A0200A82A0200C82A0200F02A02001A
S31500003100F82A0200600C0020042B0200182B020093
S31500003110080A00202C2B0200382B0200482B020044
S31500003120582B0200682B02007C2B0200882B020021
S31500003130942B0200A02B0200AC2B0200C42B020031
S31500003140CC2B0200E42B0200F42B02000C2C020014
S31500003150242C0200282C0200382C0200442C0200E9
S315000031604C2C0200582C02006C2C0200782C020019
S31500003170882C02009C2C0200AC2C0200C409002002
S31500003180B42C020044090020C82C02008409002047
S31500003190E02C0200D02A0200D82A0200B82A020037
S315000031A0C02A0200C42A020006220D4908A81CF003
S315000031B0E3FA40B106220B4908A81CF0DDFA28B94B
S315000031C00A23336084E60C23336081E615233360DB
S315000031D07EE63A463846044902F010FD204618E6D7
S315000031E0E02A0200E82A0200102C030000F09CB935
S315000031F030B5134BADF51B7D0146684600931CF0B8
S3150000320062FA01220F49104802F0F8FC01226946D1
S3150000321010A802F01DFD20B1002528460DF51B7DE6
S3150000322030BD0446139D10A803F058F822462046E8
S31500003230044902F0E3FC28460DF51B7D30BD00BFB6
S31500003240303A2F00102C0300BC1C002070B5044639
S315000032500E461949ADF51C7D029102A821461D4670
S3150000326014461CF030FA01221449154802F0C6FC37
S3150000327010B10DF51C7D70BD012202A912A802F045
S31500003280E7FC0028F5D1314612A803F039F80028EA
S31500003290EFD121462A4601AB12A802F011FE0446E0
S315000032A00028E6D112A803F019F822462046034961
S315000032B002F0A4FC0198DCE7303A2F00102C030042
S315000032C0BC1C002038B5FFF72FFD01280AD00222CA
S315000032D00D4B0E491A600023022418460B600C4B56
S315000032E01C6038BD084D04462860FFF773FD28B101
S315000032F00022064B1A60064B1C60F2E72B68034956
S31500003300022B0C60E7D038BD640C0020040A0020B4
S31500003310600C0020014B1868704700BFF01E0020AB
S31500003320014B1868704700BF640C0020014B1868F9
S31500003330704700BF040A0020014B1868704700BFA1
S31500003340600C002008B5094B1B68012B02D0084B06
S31500003350186808BD074908481CF049FA0028F6D045
S315000033600023034A1846136008BD00BF040A002064
S315000033701C0C00200C2D0200200C0020F0B583B0A0
S315000033801D46099E8DF800007AB314460DF1010022
S3150000339001341BF0F9FE6F4645B12A4638190F2154
S315000033A01BF019FF0134013D54FA85F4002E12DD9D
S315000033B000233A4618462146FEF75EFC034638B916
S315000033C00A9B012B13D13146089AFEF755FC03469A
S315000033D0184603B0F0BD01233A4621460020FEF709
S315000033E04BFC0346184603B0F0BD0124D3E7012386
S315000033F03146089AFEF72EFC0346184603B0F0BD88
S31500003400F0B51746B7F5807F28BF4FF480774FF0A9
S31500003410020C8E46032289B0CDE9017C8DF8160098
S31500003420070C000A8DF815000023104605A9CDF8F3
S3150000343000E08DF81470FFF7A1FF652601250F2423
S31500003440074603E042F21070FEF754FB0023032107
S31500003450184606AA8DF818608DF819508DF81A408E
S31500003460FEF70AFC0028EDD101230DF113021946DF
S31500003470FEF7F0FB0028E5D19DF81330DB07E1D419
S31500003480384609B0F0BD00BF2DE9F0414FF4FF17F3
S31500003490002580460646C5F5DE74B4F5807F28BF54
S315000034A04FF48074314638462246FFF7A9FF25447B
S315000034B02744264410B9B5F5DE7FECD34AF2C4633F
S315000034C0B8F80000C01A18BF0120BDE8F08100BF9F
S315000034D00149024814F07EBA543103006C6300209F
S315000034E0014814F0B9BA00BF6C63002010B500247F
S315000034F00A4B82B01968012201AB0948019417F002
S3150000350035FB019B3BB14FF08052064B5A60BFF32F
S315000035104F8FBFF36F8F02B010BD00BF4C6300200A
S31500003520118C010000ED00E008B50349034802F0E4
S31500003530F3FF034B187008BD381F00206C0C0020E9
S315000035403C1F00200020704770B584B0FFF72CFBAD
S315000035500A24FF250122002102A88DF80850FFF752
S31500003560A5FB013CF6D1FFF743FB95228DF80940F8
S315000035708DF80A408DF80B408DF80C40402302ADC3
S315000035800DF10D048DF80D2001E015F8013F012223
S3150000359000210DF107008DF80730FFF787FBA542E4
S315000035A0F3D14FF40054FF26002501E0013C0ED074
S315000035B001220DF107010DF106008DF806608DF868
S315000035C00750FFF773FB9DF80730012BEED1FFF78D
S315000035D0EBFAFF23012200210DF107008DF80730D9
S315000035E0FFF764FB0122024B1A7004B070BD00BFE6
S315000035F03E1F0020F0B50C4683B00546012200218F
S315000036000DF107008DF80740FFF750FBFD2C02D1A6
S31500003610002003B0F0BD0026FF2731464FF40072AC
S315000036202846FFF743FB0DF1070101220DF10600C5
S315000036308DF806708DF80760FFF738FB01220DF153
S3150000364007010DF1060041248DF806708DF807601C
S31500003650FFF72CFB02E013F0FF0411D001220DF15D
S3150000366007010DF106008DF806708DF80760FFF76B
S315000036701DFB9DF80750631E05F01F05052DEAD1B9
S31500003680FF26002401220DF107010DF106008DF839
S3150000369006608DF80740FFF709FB9DF80730002B01
S315000036A0F0D0A5F10500B0FA80F0400903B0F0BDF6
S315000036B00A232DE9F0411F4EFF25002407468846C0
S315000036C082B0337001E0307860B301220DF107015A
S315000036D00DF106008DF806508DF80740FFF7E6FA63
S315000036E09DF80730FF2BEED0FE2B1ED14246394601
S315000036F01148FFF7DBFA01220DF107010DF1060073
S315000037008DF806508DF80740FFF7D0FA01220DF12B
S3150000371007010DF106008DF806508DF80740FFF7FA
S31500003720C5FA012002B0BDE8F081002002B0BDE874
S31500003730F08100BF3F1F0020441F00202DE9F04309
S315000037403223FF26002583B04B4F8146884601224F
S315000037500DF107010DF106003B708DF806608DF83E
S315000037600750FFF7A3FA02E03B78002B67D001224F
S315000037700DF107010DF106008DF806608DF8075072
S31500003780FFF794FA9DF80740FF2CEDD101220021A6
S315000037900DF107008DF80790FFF788FA4FEA1863D6
S315000037A0012200210DF107008DF80730FFF77EFAA0
S315000037B04FEA1843012200210DF107008DF807306A
S315000037C0FFF774FA4FEA1823012200210DF10700D2
S315000037D08DF80730FFF76AFA012200210DF1070084
S315000037E08DF80780FFF762FAB9F1400F42D0B9F1C0
S315000037F0480F28D18723012200210DF107008DF8FB
S315000038000730FFF753FA0A24FF26002501220DF19F
S3150000381007010DF106008DF806608DF80750FFF7D9
S3150000382045FA9DF907209DF80700002A04F1FF33A9
S3150000383006DA13F0FF04E9D103B0BDE8F083FF20F8
S3150000384003B0BDE8F083012200210DF107008DF8D9
S315000038500750FFF72BFAB9F14C0FD4D101220DF125
S3150000386007010DF106008DF806408DF80750FFF7A9
S315000038701DFAC8E79523BEE7401F00202DE9F04F4B
S31500003880044685B04FF40072FF2172481BF0A3FC7A
S3150000389054BB714D297811F0020404D02878C0B2C7
S315000038A005B0BDE8F08FFFF74FFEFFF7A1F92146FF
S315000038B04020FFF743FF0128064619D00DF10B08FB
S315000038C00DF10A070024654B1C70FFF76DF9FF2305
S315000038D04146384601228DF80A308DF80B40FFF735
S315000038E0E5F95F4B1C70D9E7012005B0BDE8F08F04
S315000038F06423DFF870914FF4D571482089F80030C1
S31500003900FFF71CFF012858D103AB9B464FF0FF0A77
S31500003910019304AE0DF10B080DF10A070122414691
S3150000392038468DF80AA08DF80B40FFF7BFF99DF8D1
S315000039300B200BF8012B5E45F0D19DF80E30012BC4
S31500003940C0D19DF80F30AA2BBCD103E099F8003006
S31500003950002BB7D000217720FFF7F0FE0128F5D81D
S315000039604FF080416920FFF7E9FE0028EED199F873
S315000039700030002BA6D001467A20FFF7DFFE044672
S3150000398000289FD14FF0FF090122414638468DF8A5
S315000039900A908DF80B40FFF789F9019A9DF80B30D4
S315000039A002F8013B96420192EED19DF80C3013F0DD
S315000039B0400F14BF062602262FE021467720FFF788
S315000039C0BDFE012809D83CE04120FFF7B7FE98B1BB
S315000039D099F80030002B3FF471AF022E4FF0000132
S315000039E0F2D17720FFF7AAFE0128F1D8002169203D
S315000039F0FFF7A4FE0028EBD199F80030002B3FF426
S31500003A005DAF4FF400715020FFF798FE0DF10B08E3
S31500003A100DF10A0700287FF455AF104BFF241E70E6
S31500003A20FFF7C2F800234146384601228DF80B30D5
S31500003A308DF80A40FFF73AF92B7803F0FE032B7056
S31500003A402CE721466920FFF779FE012898BF022658
S31500003A50C3E700BF441F0020680C00203D1F002064
S31500003A603E1F00203F1F002018B9034B1878C0B234
S31500003A7070470120704700BF680C002070B582B007
S31500003A8000283BD11C46002B38D0274B1B78D80783
S31500003A9038D41546254B0E461B785B0758BF550292
S31500003AA0FFF7A6F8012C294630D05220FFF746FE34
S31500003AB00546A0B10125FFF777F8FF240023012270
S31500003AC00DF107010DF106008DF806408DF807305F
S31500003AD0FFF7ECF8284602B070BD013C09D030462D
S31500003AE04FF40071FFF7E4FD06F500760028F4D1E7
S31500003AF0012500214C20FFF721FEDCE7042528469E
S31500003B0002B070BD0325284602B070BD5120FFF7F4
S31500003B1015FE0028CED14FF400713046FFF7C8FDE0
S31500003B2080F00100C5B2C6E7680C00203D1F0020EA
S31500003B302DE9F04782B0002877D19946002B74D042
S31500003B406C4B14461A78D50700F18A801B78580703
S31500003B5000F19780684D8A462B785A0758BF640251
S31500003B60FFF746F8B9F1010F7FD02B789B0700F1DC
S31500003B708D8021465920FFF7E1FD0746002859D1DF
S31500003B804FF0FF085D4E0DF107040DF106053223D7
S31500003B900122214628468DF806808DF8077033707D
S31500003BA0FFF784F801E03378B3B1012221462846B5
S31500003BB08DF806808DF80770FFF778F89DF80720D6
S31500003BC0FF2AF0D1FC215046FFF714FD20B1B9F1D0
S31500003BD001090AF5007ADAD132234FF0FF080027EF
S31500003BE001222146284633708DF806808DF807702D
S31500003BF0FFF75CF802E03378002B40D00122214623
S31500003C0028468DF806808DF80770FFF74FF89DF867
S31500003C100730FF2BEFD1FD23012200212046164657
S31500003C208DF80730FFF742F809E00426304602B067
S31500003C30BDE8F08701260DF107040DF10605FEF734
S31500003C40B3FFFF2700232146284601228DF8067080
S31500003C508DF80730FFF72AF8304602B0BDE8F08746
S31500003C600326304602B0BDE8F08721465820FFF70C
S31500003C7065FD074698B10DF107040DF1060501260D
S31500003C80DDE70226304602B0BDE8F0870021772046
S31500003C90FFF754FD49465720FFF750FD69E73223E9
S31500003CA04FF0FF08154E0DF107040DF106058DF8CE
S31500003CB007004A462146284633708DF80680FEF7EF
S31500003CC0F5FF02E03378002BD9D0012221462846A1
S31500003CD08DF806808DF80770FEF7E8FF9DF807302F
S31500003CE0FF2BEFD1FE215046FFF784FC80F0010048
S31500003CF0C6B2A4E7680C00203D1F0020401F00202C
S31500003D002DE9F04788B0D8B905290D46164611D0D9
S31500003D10774B1C7814F0010417D1FEF769FF0D2DBF
S31500003D2018D8DFE805F03E646F171717171717172F
S31500003D301775858C1378012B2DD0022B26D0F3B165
S31500003D400424204608B0BDE8F0870324204608B0C6
S31500003D50BDE8F08704240DF10F05FEF725FFFF26C9
S31500003D600023012229460DF10E008DF80E608DF814
S31500003D700F30FEF79BFF204608B0BDE8F0875D4A8E
S31500003D801478002CDDD01C461370DAE7594B044634
S31500003D901B785370D5E70190FFF7D6FB01980446D0
S31500003DA0CFE732234FF0FF080026DFF84C9104AF2F
S31500003DB00DF10F0501223946284689F800308DF8A5
S31500003DC00F808DF81060FEF771FF012239462846F4
S31500003DD08DF80F808DF81060FEF768FF9DF81030A3
S31500003DE0FF2BBAD099F80030002BEED108E0002165
S31500003DF04920FFF7A3FC044600283ED00DF10F052D
S31500003E000124AAE74FF400730DF10F053380A4E7F0
S31500003E1000214920FFF792FC0028EFD110213046FF
S31500003E20FFF746FC80F001000DF10F05C4B294E7E0
S31500003E3000214A20FFF782FC0028DFD1EEE70021AF
S31500003E407A20FFF77BFC80460028D7D14FF0FF0988
S31500003E5006F1040A04AF0DF10F0501223946284682
S31500003E608DF80F908DF81080FEF720FF9DF810302A
S31500003E7006F8013BB245F0D16FE710210DEB0100CA
S31500003E80FFF716FC0028B9D09DF810309B09012BCE
S31500003E9021D09DF817309DF818109B0003EB911365
S31500003EA09DF816100133890201F440610B449DF818
S31500003EB015209DF819109DF81A0002F00F0249000E
S31500003EC001F0060102EBD0120A44073A9340336030
S31500003ED00DF10F0541E79DF819309DF818200133C3
S31500003EE003EB02239BB29B0233600DF10F0534E70F
S31500003EF0680C00203E1F0020401F0020FFF7BEBCBC
S31500003F00FFF7B2BDFFF7BABDFFF712BEFFF7F8BE67
S31500003F1008B5B8B181B188420BD9024601E08A42A0
S31500003F2008D012F8013C1046013B1F2B02F1FF326C
S31500003F30F5D908BD104608BD8421054B054A06483B
S31500003F4014F0C0FA8321054B024A034814F0BAFA6A
S31500003F50782D0200C82E02002C2D02006C2D0200C6
S31500003F60F8B5002A00F09D800C46002900F09380E9
S31500003F700546002800F08F8081421F46164607D866
S31500003F8011D008461BF0CDFB2044854240F28F80BD
S31500003F90012F0ED0022F23D06FB1BA214A4B4B4AC4
S31500003FA04B4814F08FFA012BF4D11BF0BAFBC44234
S31500003FB07DD3022E3AD8711E0FD00023013C6A1E13
S31500003FC004E001338B4202F8010F05D014F9010F0A
S31500003FD00028F6D19E4270D91D4400232B70F8BDEF
S31500003FE094F900100029F8D0012EF6D0AA1E164426
S31500003FF06B1E00220EE05C290ED0A1560132A018DD
S31500004000597090F90010981C401B0133002938D0D4
S31500004010B34236D02229EED1571CE157E0192229A6
S315000040200BBF0232A156A0183A46E9E722232B70AD
S3150000403094F9001049B3032EA6F1020028D00123FB
S315000040405C27033E09E01A4694F90010531CA95454
S3150000405014F9011F79B183420DD22229F3D19E4270
S3150000406011D9EF5494F900105A1CA95414F9011FE0
S31500004070531C0029EFD1023222200021E854A95412
S31500004080F8BD0544A9E75A1CF6E702220123F3E727
S3150000409003460222F0E797210E4B0C4A0C4814F017
S315000040A011FA96210C4B094A094814F00BFA98218B
S315000040B00A4B064A064814F005FAA021084B034AA3
S315000040C0034814F0FFF900BFA43E0300E82E0200E7
S315000040D02C2D0200942D0200882D0200B42D020022
S315000040E0182E020070B590F9003005460E460246BD
S315000040F0002463B913E0232B0BD0222B21D192F994
S315000041000130222B23D084F0010401323BB13B2B3A
S31500004110F1D104B392F901300132002BF7D100241A
S31500004120284614701BF0FDFA29462844FFF7F0FED6
S3150000413050B30470347095F90030222B15D0284600
S3150000414070BD5C2B92F90130DFD1222BDDD192F9C3
S3150000415002300132D9E73B2BE1D0232BDFD0D4212B
S315000041600C4B0D4A0D4814F0ADF928461BF0D9FA50
S31500004170284410F9013C222BE1D1022300F8014C1E
S3150000418001353370284670BD8D21054B054A03481D
S3150000419014F098F9242E0200F42E02002C2D0200B1
S315000041A05C2E0200002F02002DE9F04FC5B0054637
S315000041B09946DDF844810192009129B108461BF029
S315000041C0B0FA08B1824604E0B9F1000F40DB4FF0C7
S315000041D0000A4FF0FF370DF1100B2A464FF480719D
S315000041E0584602F06FF9002800F0B2809BF90020D3
S315000041F05C46531EDBB21F2B05D814F9012F531E44
S31500004200DBB21F2BF9D95B2AE7D15D2120461BF0D3
S31500004210DAFA0028E1D063780134013B1F2B04D879
S3150000422014F8013F013B1F2BFAD990F900305D2BA2
S3150000423040F0F2802146FFF76BFE031B534506460E
S3150000424076D00137B945C8D1B9F1000F80F2BF80E9
S31500004250019B002B00F0B68001981BF062FA06461F
S315000042604FF0FF340DF1100BB8F1000F02D06B695F
S31500004270C8F800302A464FF48071584602F022F9F9
S31500004280002865D09BF900A00AF1FF33DBB21F2B93
S3150000429062D8594611F9012F531EDBB21F2BF9D9EB
S315000042A05B2A55D05F4617F901AF0AF1FF33DBB23F
S315000042B01F2BF8D93D2138461BF014FA034688B364
S315000042C0BAF13B0FD0D0BAF1230FCDD0002BCBD013
S315000042D0002E46D14E9A0134A242C5D199464E9B34
S315000042E0002B55DA99F900303D2B02D03A2B40F0DD
S315000042F08C8099F8013009F10100013B1F2B04D88D
S3150000430010F8013F013B1F2BFAD90DF10F01FFF702
S31500004310E9FE9DF80F300146DDE94F02FFF720FE6A
S31500004320012016E03A2138461BF0DCF90346C7E7C0
S31500004330009B002B85D05246194620461BF0FAF901
S3150000434000287FF47EAFB9F1000F81DB4F453ED0E8
S31500004350002045B0BDE8F08FBAF15B0FF8D05F469C
S31500004360A8E7184639460093FFF7D2FDC01BB042B6
S31500004370009BAFD13246384601991BF0DBF9009B12
S315000043800028A7D199464E9B002BABDB9C42DFD180
S3150000439099F900303D2B01D03A2B29D1002438461B
S315000043A089F800401BF0BDF939463844FFF7B0FDE7
S315000043B028B3047023464F983946509AFFF7D0FD2C
S315000043C00120C6E74E9B002B2CDB019E48E746B139
S315000043D000234F982146509A3370FFF7C1FD012004
S315000043E0B7E74FF48271134B134A144814F06AF876
S315000043F040F22111124B104A104814F063F88D2137
S31500004400104B114A0D4814F05DF84FF496710C4BA1
S31500004410094A0A4814F056F8FF210C4B064A074889
S3150000442014F050F84FF48871094B034A034814F00E
S3150000443049F800BF842E0200D82E02002C2D02005F
S31500004440AC2E02005C2E0200002F0200682E020035
S31500004450902E0200F0B5ADF50F7D07460D461646C7
S315000044609599012204A81C4601F0F2FB70B10023C5
S31500004470124920469E4218BF3146949AFFF770FDB6
S3150000448020461BF04EF90DF50F7DF0BD949B2A4694
S31500004490CDE901434FF0FF330390394604A800935A
S315000044A0FFF782FE054604A801F018FF002DDED0B6
S315000044B020461BF036F90DF50F7DF0BD102C0300DC
S315000044C070B4DDE903562BB1002D03DD11B170BCCC
S315000044D0FFF7C0BF002070BC704700BF30B5144660
S315000044E093B0D9B140250193114A02AB0095FFF76D
S315000044F0B1FF98B101280ADD9DF909200D4BD35C67
S3150000450003F00303022B08BF203A582A09D00A22D7
S31500004510002102A81CF0DCF813B030BD204613B011
S3150000452030BD1022002102A81CF0D2F8F7E700BF28
S31500004530102C030057450300034B03EB800252681F
S3150000454003445268187A10474C210020084A034653
S31500004550115C51B94FF0010C02EB8001496810184B
S3150000456002F803C0007A0B6818470020704700BFA6
S315000045704C21002030B4054C04EB80056D680444E2
S31500004580AD68207AAC4630BC604700BF4C210020A5
S3150000459030B4054C04EB80056D680444ED68207A60
S315000045A0AC4630BC604700BF4C210020044B03EBF7
S315000045B0000C03EB80035B689CF808001B69184736
S315000045C04C2100208446006868B1024601E03A2B7F
S315000045D006D012F9013BD9B21F29F8D8002070473E
S315000045E0831C9A4202D04FF0FF30704790F900309A
S315000045F0302BF8D10020CCF80020704738B50D4696
S3150000460040B1036804462BB11A781AB18088DA885B
S31500004610904203D0092000232B6038BD5878FFF75D
S315000046208BFF10F00100F5D12368F5E72DE9F8437B
S31500004630002407688C758369002B62D0C36A06461E
S3150000464001330D465FD0F9680888B8B14FF002080B
S31500004650A1462CB900F5205292B2B2F5006F66D38E
S315000046604FF4697140EA044001F082FFFF28C9F166
S31500004670FF034AD9012B5CD8002304B10023002292
S315000046802B449A7595F916C0F66900244FF02E0E44
S31500004690721E06F10A0704E029194B72013497428B
S315000046A015D0104612F8013F202B99B2F7D00529F4
S315000046B0A0F107000CBF6FF01A035BB2B042EBD15A
S315000046C00B2CE9D8291981F809E00134E4E7002226
S315000046D02B195A72BCF1000F09D19CBB3F23012450
S315000046E0AB7500232C44A375337B03B96B72F37A45
S315000046F003F03F032B72F3692B60F38AEB80338B55
S31500004700AB80BDE8F883A446BEE7C8B1002BB4D0A1
S31500004710012305EB090290750024F968994431F8E4
S31500004720080008F10208002893D14B46A5E7044685
S31500004730F5E705EB0902030A9375D0750223EBE74B
S3150000474003469AE795F909306446002BC9D06FF005
S3150000475007074FF0080C05F109027F1B0EE0192828
S3150000476006D8317B03F120001CEA010F00D043B2CA
S315000047705373BC1812F9013F002BB2D099B22E29FF
S31500004780A1F14100EBD10B464FF0100CF0E700BF52
S3150000479070B500F134060446026B012331464078B9
S315000047A0FFF7F6FE60B9216B636AE269CB1A9342A2
S315000047B00546207102D2E378022B04D0284670BD4C
S315000047C00125284670BD0A44012331466078FFF76B
S315000047D0DFFEF3E7F8B5037905460E463BBBAB694A
S315000047E0B11E023B994228D26B89EE6A01FB036631
S315000047F005F134074FF40072002138462E631AF093
S31500004800EAFC6889044670B1002403E06889013433
S31500004810A04208D90123394668783219FFF7B8FE55
S315000048200028F3D06889201A18BF0120F8BDFFF7C9
S31500004830AFFF0028D3D00120F8BD0026D8E700BF7F
S3150000484070B5037904465BB92378032B0FD0002299
S3150000485060781146FFF7AAFE003818BF012070BD28
S31500004860FFF796FF0028FAD12378032BEFD165795D
S31500004870012DECD104F134064FF4007200213046CC
S315000048801AF0A9FC5220612284F8340084F835001D
S3150000489072202B4641254FF0550C3146AA2684F846
S315000048A0362084F81B22626984F8180284F81902FB
S315000048B0100A84F81D02100C84F81C2284F81E02CB
S315000048C0120E206984F81F22226A84F8375084F871
S315000048D01A52050A84F82002013284F82152050C86
S315000048E0000E84F8230284F832C2607884F83362BA
S315000048F0226384F82252FFF74BFE00236371A6E77A
S3150000490038B5037904460D466BB92A46012360780B
S3150000491004F13401FFF72EFE00281CBF4FF0FF35CF
S315000049200120256338BDFFF733FF0028EDD038BDE1
S3150000493070B54FF0FF360023B1420446037106639B
S315000049400CD00D460A460123407804F13401FFF7E6
S3150000495011FE10B10420266370BD256394F834302F
S31500004960B4F83252EB2B0AD01833DBB2012B06D93E
S315000049704AF65520854214BF0320022070BD4AF630
S3150000498055239D420BD0B4F83F3094F841105A1E7F
S315000049901A4202D1B3F5007F15D0032070BD08225C
S315000049A01C4904F186001AF0DFFB0028D4D0B4F8C5
S315000049B03F305A1E1A4204D1B3F5007F94F84120C5
S315000049C021D0022070BD0029E7D04B1E0B42E4D156
S315000049D0B4F84230002BCBD094F84430013B012B85
S315000049E0C6D8B4F84530002BC2D0B4F847307F2B78
S315000049F003D8636DB3F5803FBAD3B4F84A30002BC1
S31500004A00B6D0002070BD002ADBD0531E1342D8D189
S31500004A10DEE700BF102F02000023F0B50B6085B063
S31500004A200E461546FFF7CEFD0028C0F2A080884B43
S31500004A3053F82040002C00F0BE803460237805F047
S31500004A40FE0563B16078FFF777FDC70707D41DB190
S31500004A5010F0040540F0AB80284605B0F0BD0023F9
S31500004A6060782370FFF772FDC60774D415B140074E
S31500004A7000F19D8000212046FFF75AFF02287AD0D8
S31500004A8004286ED001286ED8B4F83F30B3F5007F05
S31500004A9069D1B4F84A3003B9A36D94F84420276B62
S31500004AA0501E0128E361E2705DD894F8410085B29A
S31500004AB06581002D57D0411E014254D1B4F845609E
S31500004AC0310726814FD1B4F8475005B9656DB4F862
S31500004AD04210002947D003FB02F201EB161C944456
S31500004AE0654540D3A5EB0C058542B5FBF0FE3AD3F0
S31500004AF05848864537D84FF6F57086455DD840F656
S31500004B00F5703944864507EB0C050EF10200276265
S31500004B10E562A061616271D82EB3551800EB4001C1
S31500004B2000F0010202EB51020121A56202F2FF121E
S31500004B30B3EB522F17D34FF0FF338020C4E9043371
S31500004B40CAB26071444900250B88227001339BB2BA
S31500004B500B80E38080E70325284605B0F0BD0428D6
S31500004B6001D1012578E70D25284605B0F0BD0B25B6
S31500004B70284605B0F0BDD4F80A32D4F8FA11D4F8B4
S31500004B801A22CDE90013D4F82A326D46CDE9022364
S31500004B9004AE02E00320AE42E1D055F8041B002922
S31500004BA0F8D02046FFF7C4FE0128F4D86CE70A25A2
S31500004BB0284605B0F0BD0C254EE73944616207EB87
S31500004BC00C01E162B4F85E100EF102023143A261FB
S31500004BD02762C8D19200216E02F2FF12B3EB522F68
S31500004BE0A162C0D34FF0FF338021B4F86420C4E93A
S31500004BF00433012A617108D00322A3E7002EB2D044
S31500004C000A44A2620221420090E72046791CFFF77F
S31500004C1077FE0028F0D14AF65523B4F832226071A7
S31500004C209A42E9D1626B0D4B9A42E5D103F1FF53EB
S31500004C30D4F8182203F5005320339A42DCD1D4F875
S31500004C401C12D4F820320322C4E904317AE700BFEB
S31500004C5044210020F5FFFF0F4821002052526141F8
S31500004C602DE9F84303780446022B0D46164606D076
S31500004C70032B6AD0012B27D00220BDE8F883476AB0
S31500004C80036B07EB11279F4200F092800379002BFC
S31500004C9040F0B88004F1340801233A464146607872
S31500004CA0FFF768FC00284AD1276301236D0005F44D
S31500004CB0FF7508EB0501C6F3072208F805604A7080
S31500004CC023710020BDE8F883426A036B01EB5107AC
S31500004CD002EB5728984565D00379002B40F08C806D
S31500004CE004F134090123424649466078FFF742FC45
S31500004CF028BBC4F8308015F0010507F10108C7F399
S31500004D00080760D0012219F8073003F00F0343EAC1
S31500004D10061309F80730676A236B07EB58279F428B
S31500004D2022717AD02046FFF733FD0028A5D1012352
S31500004D303A4649466078FFF71DFC00283BD04FF005
S31500004D40FF3301202363BDE8F883426A036B02EB5D
S31500004D50D118984529D00379002B59D104F134078D
S31500004D600123424639466078FFF704FC0028E6D165
S31500004D70C4F830804FF0010CAD0005F4FE757B5988
S31500004D8026F0704203F070431A437919130A7A55D4
S31500004D904B70130C120E8B70CA7084F804C000207E
S31500004DA0BDE8F88300F13409A5E700F13407E1E72F
S31500004DB000F1340879E7C8F30801276349447DB157
S31500004DC0C6F3071212E0012309F80760676A237128
S31500004DD0236B07EB58279F42A4D1C8F30801494427
S31500004DE00B78C6F3032223F00F06324301230A7021
S31500004DF023710020BDE8F883FFF7CAFC00283FF4C2
S31500004E006FAF3AE7FFF7C4FC00283FF443AF34E73F
S31500004E10FFF7BEFC0028A1D02FE7C8F3080309EB73
S31500004E200301CDE701294CD983692DE9F041994267
S31500004E300C46054602D30120BDE8F0810378022B1B
S31500004E405AD0032B3FD0012BF5D1426A036B01EBFD
S31500004E50510602EB56279F420ED00379002B79D1DB
S31500004E6001233A46687805F13401FFF783FB0028F1
S31500004E705FD13B466A6A2F63771C02EB5728C6F35D
S31500004E8008062E44434596F834600DD02B79002B46
S31500004E9065D101234246687805F13401FFF76AFBC4
S31500004EA0002846D1C5F83080C7F308073D4495F879
S31500004EB03400E30746EA00204CBF0009C0F30B00AC
S31500004EC0BAE701207047466A036B06EBD1169E428D
S31500004ED029D0037993BB05F13407012332463946BD
S31500004EE06878FFF747FB20BB2E63A40004F4FE742A
S31500004EF0385920F070409FE7466A036B06EB11268F
S31500004F009E4213D0037903BB05F1340701233246D1
S31500004F1039466878FFF72EFB58B92E63640004F40F
S31500004F20FF74385B88E700F13407DEE700F13407E9
S31500004F30F4E74FF0FF3318462B637DE7FFF728FCB5
S31500004F400028C8D04FF0FF3076E7FFF721FC002895
S31500004F50DAD0F7E7FFF71CFC002881D0F2E72846F5
S31500004F60FFF716FC002894D0ECE700BF0129F8B53E
S31500004F700D4606682AD9B3698B4227D907461146DA
S31500004F8032BB304617E0B3699D421FD22946002244
S31500004F903046FFF765FED0B9D6E90532911E8B4241
S31500004FA005D27179013341F0010171717361A24239
S31500004FB01BD9254638682946FFF734FF0446A0B1B9
S31500004FC0012803D0431C12D0012DDCD80220F8BDE5
S31500004FD0012AFBD09342F9D94FF0FF323046FFF752
S31500004FE03FFE0028F3D13868E5E70020F8BD012030
S31500004FF0F8BD00BF2DE9F04106468846076800293E
S3150000500053D13D69002D48D0BB69AB4298BF0125FD
S315000050107B69002B45D0BB692C4606E001286AD087
S31500005020013070D0AC423CD0BB6901349C4202D303
S31500005030012D36D9022421463068FFF7F3FE0028F9
S31500005040ECD1012C57D9BB69A34254D94FF0FF329A
S3150000505021463846FFF704FE00284AD1B8F1000F72
S315000050600CD0B8F1010F46D0BB69984543D2224611
S3150000507041463846FFF7F4FD00283AD1D7E9052323
S31500005080023B9A427B7998BF02F1FF3243F001035B
S315000050903C6198BF7A617B7104E07B690125002B36
S315000050A0B9D100242046BDE8F0813846FFF7BAFEA4
S315000050B0012804461FD9421C25D0BB698342F1D87A
S315000050C07A69002AEDD008F10104A34298BF0224B0
S315000050D030682146FFF7A6FE01280CD0431C12D0EB
S315000050E068B13D69012D0CD9BB69AB4298BF4546F5
S315000050F092E7012807D001242046BDE8F081002C64
S31500005100A1D1454687E74FF0FF342046BDE8F08140
S315000051102DE9F047056904462035B5F5001F04D38F
S3150000512000230420A361BDE8F0878369002B4FD0DC
S31500005130C5F308070668002F38D188464169013350
S315000051408361002939D07389013B13EA55292DD192
S315000051503046FFF767FE0128824635D9B0F1FF3F9A
S3150000516030D0B369834213D8B8F1000FD8D02046A7
S315000051706169FFF73FFF824640B3012824D0B0F1B2
S31500005180FF3F1FD001463046FFF724FBD0B9B36975
S31500005190023BC4F814A0AAF1020A9A4504D2B6F852
S315000051A00A90F36A0AFB0939C4F8189034363E446B
S315000051B000202561E661BDE8F0873389B3EB551F12
S315000051C0F4D8ADE70120AEE70220ACE70720AAE756
S315000051D00420A8E7B1F5001F42D2CA06F8B50D466D
S315000051E020D18168064607680561E9B17B89B5EB80
S315000051F0432F4FEA432435D3384607E0012811D917
S31500005200BB6983420ED9AC422DD83068FFF70AFE3F
S31500005210431C0146A5EB0405F0D10120F8BD00238F
S31500005220C6E905130220F8BD3B78022B13D83B894B
S31500005230B3EB551FF6D9BA6AB2617161002AF1D093
S3150000524007F13403C5F3080102EB55220B44002095
S31500005250C6E90623F8BDBB6A002BE8D01946C5E7A8
S3150000526002207047BB69023B881E9842D7D27B89D1
S31500005270FA6A00FB0322B261DFE700BF2DE9F04FB7
S315000052802DED028B002185B005460768FFF7A2FFCA
S315000052900446C8B94FF0FF094FF0FF33CA4607F17D
S315000052A03408EB62AE693B6B9E4214D03B79002B0F
S315000052B045D10123324641467878FFF75BF948B17C
S315000052C04FF0FF3301243B63204605B0BDEC028B53
S315000052D0BDE8F08F3E63EE693478002C00F0A280C2
S315000052E0F27AE52C02F03F03AB7103D0100713D519
S315000052F00F2B30D04FF0FF334FF0FF0AEB62002147
S315000053002846FFF705FF04460028CBD0204605B007
S31500005310BDEC028BBDE8F08F0F2B1CD0BAF1000F4D
S315000053206DD095F82B4014F00104E3D10B223046E2
S3150000533005F1200119F018FF0028DBD1C4E7384633
S31500005340FFF726FA04460028B3D0204605B0BDEC88
S31500005350028BBDE8F08F95F82B305906CFD4620644
S3150000536048D52B6996F80D9004F0BF04EB62737B69
S315000053704B4541D1738B002B3ED1012396F800A0FB
S31500005380DFF8D0B00AF03F0A0AF1FF3A0AEB4A0208
S315000053900AEB820AFA68CDE901541846354608EE4A
S315000053A0108A164603920BF10C0114E0BAF1FF0FB6
S315000053B01AD8204601F02EF9034636F81A009A4606
S315000053C001F028F982450FD12046C24620498B4577
S315000053D02AD01BF8013FEC5A0AF101080028E5D152
S315000053E04FF6FF739C42F2D018EE108A4FF0FF0A78
S315000053F0019D84E7A245BAD04FF0FF0A7FE7324607
S3150000540006F10B0012F8011B4FEACA1343EA5A0AC7
S3150000541051FA8AFA82425FFA8AFAF3D1D14580D1EB
S31500005420002451E704244FE72E46DDE90154337882
S3150000543018EE108A5B0605D520B1039B33F81A30A7
S31500005440002BD9D104F1FF3A5FFA8AFA57E700BF79
S315000054503C2F0200302F02002DE9F04F81460368F1
S3150000546085B000930D4611F9013B2F2BFAD05C2B2A
S31500005470F8D00023C9F8083095F90030DBB21F2BAD
S3150000548040F26D81009ADFF844B30024D2F80CA0F4
S31500005490AAF10206802B98B212D99F2B03D920338A
S315000054A0DBB21C2B0CD895F90120D3B23F2B03D9C4
S315000054B07E2B1CD9002A18DB062005B0BDE8F08F2C
S315000054C00135C0B904264CB10AEB440232F8023D5C
S315000054D0202B01D02E2B3CD1013CF7D100230620F6
S315000054E0AAF8003005B0BDE8F08FFC2BE4D803EB3A
S315000054F00020023580B24FF4697101F065F8074665
